{
  "contractName": "PollingPlatform",
  "abi": [
    {
      "anonymous": false,
      "inputs": [
        {
          "indexed": false,
          "internalType": "uint256",
          "name": "pollId",
          "type": "uint256"
        },
        {
          "indexed": false,
          "internalType": "string",
          "name": "question",
          "type": "string"
        },
        {
          "indexed": false,
          "internalType": "address",
          "name": "creator",
          "type": "address"
        }
      ],
      "name": "PollCreated",
      "type": "event"
    },
    {
      "anonymous": false,
      "inputs": [
        {
          "indexed": false,
          "internalType": "uint256",
          "name": "pollId",
          "type": "uint256"
        }
      ],
      "name": "PollDeleted",
      "type": "event"
    },
    {
      "anonymous": false,
      "inputs": [
        {
          "indexed": false,
          "internalType": "uint256",
          "name": "pollId",
          "type": "uint256"
        },
        {
          "indexed": false,
          "internalType": "uint256",
          "name": "optionIndex",
          "type": "uint256"
        },
        {
          "indexed": false,
          "internalType": "address",
          "name": "voter",
          "type": "address"
        }
      ],
      "name": "Voted",
      "type": "event"
    },
    {
      "inputs": [],
      "name": "pollCounter",
      "outputs": [
        {
          "internalType": "uint256",
          "name": "",
          "type": "uint256"
        }
      ],
      "stateMutability": "view",
      "type": "function",
      "constant": true
    },
    {
      "inputs": [
        {
          "internalType": "uint256",
          "name": "",
          "type": "uint256"
        }
      ],
      "name": "polls",
      "outputs": [
        {
          "internalType": "uint256",
          "name": "id",
          "type": "uint256"
        },
        {
          "internalType": "string",
          "name": "question",
          "type": "string"
        },
        {
          "internalType": "string",
          "name": "description",
          "type": "string"
        },
        {
          "internalType": "uint256",
          "name": "createdAt",
          "type": "uint256"
        },
        {
          "internalType": "uint256",
          "name": "closeAt",
          "type": "uint256"
        },
        {
          "internalType": "bool",
          "name": "isOpen",
          "type": "bool"
        },
        {
          "internalType": "bool",
          "name": "isDeleted",
          "type": "bool"
        },
        {
          "internalType": "address",
          "name": "owner",
          "type": "address"
        }
      ],
      "stateMutability": "view",
      "type": "function",
      "constant": true
    },
    {
      "inputs": [
        {
          "internalType": "string",
          "name": "_question",
          "type": "string"
        },
        {
          "internalType": "string",
          "name": "_description",
          "type": "string"
        },
        {
          "internalType": "string[]",
          "name": "_options",
          "type": "string[]"
        },
        {
          "internalType": "uint256",
          "name": "_duration",
          "type": "uint256"
        }
      ],
      "name": "createPoll",
      "outputs": [],
      "stateMutability": "nonpayable",
      "type": "function"
    },
    {
      "inputs": [
        {
          "internalType": "uint256",
          "name": "_pollId",
          "type": "uint256"
        },
        {
          "internalType": "uint256",
          "name": "_optionIndex",
          "type": "uint256"
        }
      ],
      "name": "vote",
      "outputs": [],
      "stateMutability": "nonpayable",
      "type": "function"
    },
    {
      "inputs": [],
      "name": "getPolls",
      "outputs": [
        {
          "components": [
            {
              "internalType": "uint256",
              "name": "id",
              "type": "uint256"
            },
            {
              "internalType": "string",
              "name": "question",
              "type": "string"
            },
            {
              "internalType": "string",
              "name": "description",
              "type": "string"
            },
            {
              "internalType": "uint256",
              "name": "createdAt",
              "type": "uint256"
            },
            {
              "internalType": "uint256",
              "name": "closeAt",
              "type": "uint256"
            },
            {
              "internalType": "bool",
              "name": "isOpen",
              "type": "bool"
            },
            {
              "internalType": "address",
              "name": "owner",
              "type": "address"
            },
            {
              "internalType": "string[]",
              "name": "options",
              "type": "string[]"
            },
            {
              "internalType": "uint256[]",
              "name": "votes",
              "type": "uint256[]"
            },
            {
              "internalType": "uint256",
              "name": "userVote",
              "type": "uint256"
            }
          ],
          "internalType": "struct PollingPlatform.PollInfo[]",
          "name": "",
          "type": "tuple[]"
        }
      ],
      "stateMutability": "view",
      "type": "function",
      "constant": true
    },
    {
      "inputs": [],
      "name": "getUserPolls",
      "outputs": [
        {
          "components": [
            {
              "internalType": "uint256",
              "name": "id",
              "type": "uint256"
            },
            {
              "internalType": "string",
              "name": "question",
              "type": "string"
            },
            {
              "internalType": "string",
              "name": "description",
              "type": "string"
            },
            {
              "internalType": "uint256",
              "name": "createdAt",
              "type": "uint256"
            },
            {
              "internalType": "uint256",
              "name": "closeAt",
              "type": "uint256"
            },
            {
              "internalType": "bool",
              "name": "isOpen",
              "type": "bool"
            },
            {
              "internalType": "address",
              "name": "owner",
              "type": "address"
            },
            {
              "internalType": "string[]",
              "name": "options",
              "type": "string[]"
            },
            {
              "internalType": "uint256[]",
              "name": "votes",
              "type": "uint256[]"
            },
            {
              "internalType": "uint256",
              "name": "userVote",
              "type": "uint256"
            }
          ],
          "internalType": "struct PollingPlatform.PollInfo[]",
          "name": "",
          "type": "tuple[]"
        }
      ],
      "stateMutability": "view",
      "type": "function",
      "constant": true
    },
    {
      "inputs": [
        {
          "internalType": "uint256",
          "name": "_pollId",
          "type": "uint256"
        }
      ],
      "name": "deletePoll",
      "outputs": [],
      "stateMutability": "nonpayable",
      "type": "function"
    },
    {
      "inputs": [
        {
          "internalType": "uint256",
          "name": "_pollId",
          "type": "uint256"
        }
      ],
      "name": "closePoll",
      "outputs": [],
      "stateMutability": "nonpayable",
      "type": "function"
    },
    {
      "inputs": [
        {
          "internalType": "uint256",
          "name": "_pollId",
          "type": "uint256"
        }
      ],
      "name": "openPoll",
      "outputs": [],
      "stateMutability": "nonpayable",
      "type": "function"
    },
    {
      "inputs": [],
      "name": "getPollCount",
      "outputs": [
        {
          "internalType": "uint256",
          "name": "",
          "type": "uint256"
        }
      ],
      "stateMutability": "view",
      "type": "function",
      "constant": true
    }
  ],
  "bytecode": "0x6080604052600060015534801561001557600080fd5b50612a74806100256000396000f3fe608060405234801561001057600080fd5b506004361061009e5760003560e01c8063ac2f007411610066578063ac2f007414610135578063ad0f04a91461016c578063b384abef14610188578063d02eed38146101a4578063f23ec81d146101c25761009e565b806311a52746146100a3578063120fe89b146100c15780631f35b51d146100df578063771e70a3146100fb5780639534e63714610119575b600080fd5b6100ab6101de565b6040516100b89190611a92565b60405180910390f35b6100c96101e8565b6040516100d69190611eca565b60405180910390f35b6100f960048036038101906100f49190611f2c565b610661565b005b610103610801565b6040516101109190611eca565b60405180910390f35b610133600480360381019061012e9190611f2c565b610d55565b005b61014f600480360381019061014a9190611f2c565b610f30565b604051610163989796959493929190611fc1565b60405180910390f35b61018660048036038101906101819190612268565b6110d2565b005b6101a2600480360381019061019d9190612323565b611320565b005b6101ac611705565b6040516101b99190611a92565b60405180910390f35b6101dc60048036038101906101d79190611f2c565b61170b565b005b6000600154905090565b60606000805b600154811015610251576000818154811061020c5761020b612363565b5b906000526020600020906009020160050160019054906101000a900460ff1661023e57818061023a906123c1565b9250505b8080610249906123c1565b9150506101ee565b5060008167ffffffffffffffff81111561026e5761026d612057565b5b6040519080825280602002602001820160405280156102a757816020015b6102946118e7565b81526020019060019003908161028c5790505b5090506000805b6001548110156106575760008082815481106102cd576102cc612363565b5b906000526020600020906009020190508060050160019054906101000a900460ff166106435760008160080160003373ffffffffffffffffffffffffffffffffffffffff1673ffffffffffffffffffffffffffffffffffffffff1681526020019081526020016000205490506040518061014001604052808360000154815260200183600101805461035e90612438565b80601f016020809104026020016040519081016040528092919081815260200182805461038a90612438565b80156103d75780601f106103ac576101008083540402835291602001916103d7565b820191906000526020600020905b8154815290600101906020018083116103ba57829003601f168201915b505050505081526020018360020180546103f090612438565b80601f016020809104026020016040519081016040528092919081815260200182805461041c90612438565b80156104695780601f1061043e57610100808354040283529160200191610469565b820191906000526020600020905b81548152906001019060200180831161044c57829003601f168201915b5050505050815260200183600301548152602001836004015481526020018360050160009054906101000a900460ff16151581526020018360050160029054906101000a900473ffffffffffffffffffffffffffffffffffffffff1673ffffffffffffffffffffffffffffffffffffffff16815260200183600601805480602002602001604051908101604052809291908181526020016000905b828210156105b057838290600052602060002001805461052390612438565b80601f016020809104026020016040519081016040528092919081815260200182805461054f90612438565b801561059c5780601f106105715761010080835404028352916020019161059c565b820191906000526020600020905b81548152906001019060200180831161057f57829003601f168201915b505050505081526020019060010190610504565b5050505081526020018360070180548060200260200160405190810160405280929190818152602001828054801561060757602002820191906000526020600020905b8154815260200190600101908083116105f3575b505050505081526020018281525085858151811061062857610627612363565b5b6020026020010181905250838061063e906123c1565b945050505b50808061064f906123c1565b9150506102ae565b5081935050505090565b803373ffffffffffffffffffffffffffffffffffffffff166000828154811061068d5761068c612363565b5b906000526020600020906009020160050160029054906101000a900473ffffffffffffffffffffffffffffffffffffffff1673ffffffffffffffffffffffffffffffffffffffff1614610715576040517f08c379a000000000000000000000000000000000000000000000000000000000815260040161070c906124b5565b60405180910390fd5b6000818154811061072957610728612363565b5b906000526020600020906009020160050160019054906101000a900460ff1615610788576040517f08c379a000000000000000000000000000000000000000000000000000000000815260040161077f90612521565b60405180910390fd5b60016000838154811061079e5761079d612363565b5b906000526020600020906009020160050160016101000a81548160ff0219169083151502179055507fe66ba7d1f84b318686d5d7e1d0a39a60d5faec16733d8c4ae85a0f5b6522eaa1826040516107f59190611a92565b60405180910390a15050565b60606000805b6001548110156108e8573373ffffffffffffffffffffffffffffffffffffffff166000828154811061083c5761083b612363565b5b906000526020600020906009020160050160029054906101000a900473ffffffffffffffffffffffffffffffffffffffff1673ffffffffffffffffffffffffffffffffffffffff161480156108c15750600081815481106108a05761089f612363565b5b906000526020600020906009020160050160019054906101000a900460ff16155b156108d55781806108d1906123c1565b9250505b80806108e0906123c1565b915050610807565b5060008167ffffffffffffffff81111561090557610904612057565b5b60405190808252806020026020018201604052801561093e57816020015b61092b6118e7565b8152602001906001900390816109235790505b5090506000805b600154811015610d4b57600080828154811061096457610963612363565b5b906000526020600020906009020190503373ffffffffffffffffffffffffffffffffffffffff168160050160029054906101000a900473ffffffffffffffffffffffffffffffffffffffff1673ffffffffffffffffffffffffffffffffffffffff161480156109e257508060050160019054906101000a900460ff16155b15610d375760008160080160003373ffffffffffffffffffffffffffffffffffffffff1673ffffffffffffffffffffffffffffffffffffffff16815260200190815260200160002054905060405180610140016040528083600001548152602001836001018054610a5290612438565b80601f0160208091040260200160405190810160405280929190818152602001828054610a7e90612438565b8015610acb5780601f10610aa057610100808354040283529160200191610acb565b820191906000526020600020905b815481529060010190602001808311610aae57829003601f168201915b50505050508152602001836002018054610ae490612438565b80601f0160208091040260200160405190810160405280929190818152602001828054610b1090612438565b8015610b5d5780601f10610b3257610100808354040283529160200191610b5d565b820191906000526020600020905b815481529060010190602001808311610b4057829003601f168201915b5050505050815260200183600301548152602001836004015481526020018360050160009054906101000a900460ff16151581526020018360050160029054906101000a900473ffffffffffffffffffffffffffffffffffffffff1673ffffffffffffffffffffffffffffffffffffffff16815260200183600601805480602002602001604051908101604052809291908181526020016000905b82821015610ca4578382906000526020600020018054610c1790612438565b80601f0160208091040260200160405190810160405280929190818152602001828054610c4390612438565b8015610c905780601f10610c6557610100808354040283529160200191610c90565b820191906000526020600020905b815481529060010190602001808311610c7357829003601f168201915b505050505081526020019060010190610bf8565b50505050815260200183600701805480602002602001604051908101604052809291908181526020018280548015610cfb57602002820191906000526020600020905b815481526020019060010190808311610ce7575b5050505050815260200182815250858581518110610d1c57610d1b612363565b5b60200260200101819052508380610d32906123c1565b945050505b508080610d43906123c1565b915050610945565b5081935050505090565b803373ffffffffffffffffffffffffffffffffffffffff1660008281548110610d8157610d80612363565b5b906000526020600020906009020160050160029054906101000a900473ffffffffffffffffffffffffffffffffffffffff1673ffffffffffffffffffffffffffffffffffffffff1614610e09576040517f08c379a0000000000000000000000000000000000000000000000000000000008152600401610e00906124b5565b60405180910390fd5b60008181548110610e1d57610e1c612363565b5b906000526020600020906009020160050160019054906101000a900460ff1615610e7c576040517f08c379a0000000000000000000000000000000000000000000000000000000008152600401610e7390612521565b60405180910390fd5b60008281548110610e9057610e8f612363565b5b906000526020600020906009020160050160019054906101000a900460ff1615610eef576040517f08c379a0000000000000000000000000000000000000000000000000000000008152600401610ee690612521565b60405180910390fd5b6000808381548110610f0457610f03612363565b5b906000526020600020906009020160050160006101000a81548160ff0219169083151502179055505050565b60008181548110610f4057600080fd5b9060005260206000209060090201600091509050806000015490806001018054610f6990612438565b80601f0160208091040260200160405190810160405280929190818152602001828054610f9590612438565b8015610fe25780601f10610fb757610100808354040283529160200191610fe2565b820191906000526020600020905b815481529060010190602001808311610fc557829003601f168201915b505050505090806002018054610ff790612438565b80601f016020809104026020016040519081016040528092919081815260200182805461102390612438565b80156110705780601f1061104557610100808354040283529160200191611070565b820191906000526020600020905b81548152906001019060200180831161105357829003601f168201915b5050505050908060030154908060040154908060050160009054906101000a900460ff16908060050160019054906101000a900460ff16908060050160029054906101000a900473ffffffffffffffffffffffffffffffffffffffff16905088565b6001825111611116576040517f08c379a000000000000000000000000000000000000000000000000000000000815260040161110d906125b3565b60405180910390fd5b6000806001816001815401808255809150500390600052602060002090600902019050600154816000018190555084816001019081611155919061277f565b5083816002019081611167919061277f565b50428160030181905550814261117d9190612851565b816004018190555060018160050160006101000a81548160ff02191690831515021790555060008160050160016101000a81548160ff021916908315150217905550338160050160026101000a81548173ffffffffffffffffffffffffffffffffffffffff021916908373ffffffffffffffffffffffffffffffffffffffff1602179055508281600601908051906020019061121a929190611952565b50825167ffffffffffffffff81111561123657611235612057565b5b6040519080825280602002602001820160405280156112645781602001602082028036833780820191505090505b5081600701908051906020019061127c9291906119ab565b5060008160080160003373ffffffffffffffffffffffffffffffffffffffff1673ffffffffffffffffffffffffffffffffffffffff168152602001908152602001600020819055507fd2a8dbeae3cac9e94402cc3d7e3ee6cb0a2c32d2e426bf82f24b87ffd1089efd60015486336040516112f993929190612885565b60405180910390a160016000815480929190611314906123c1565b91905055505050505050565b816000818154811061133557611334612363565b5b906000526020600020906009020160050160009054906101000a900460ff16611393576040517f08c379a000000000000000000000000000000000000000000000000000000000815260040161138a9061290f565b60405180910390fd5b600081815481106113a7576113a6612363565b5b906000526020600020906009020160050160019054906101000a900460ff1615611406576040517f08c379a00000000000000000000000000000000000000000000000000000000081526004016113fd90612521565b60405180910390fd5b826000818154811061141b5761141a612363565b5b906000526020600020906009020160050160009054906101000a900460ff16611479576040517f08c379a00000000000000000000000000000000000000000000000000000000081526004016114709061290f565b60405180910390fd5b6000818154811061148d5761148c612363565b5b906000526020600020906009020160050160019054906101000a900460ff16156114ec576040517f08c379a00000000000000000000000000000000000000000000000000000000081526004016114e390612521565b60405180910390fd5b600080828154811061150157611500612363565b5b906000526020600020906009020160080160003373ffffffffffffffffffffffffffffffffffffffff1673ffffffffffffffffffffffffffffffffffffffff1681526020019081526020016000205414611590576040517f08c379a00000000000000000000000000000000000000000000000000000000081526004016115879061297b565b60405180910390fd5b600084815481106115a4576115a3612363565b5b90600052602060002090600902016006018054905083106115fa576040517f08c379a00000000000000000000000000000000000000000000000000000000081526004016115f1906129e7565b60405180910390fd5b6000848154811061160e5761160d612363565b5b9060005260206000209060090201600701838154811061163157611630612363565b5b90600052602060002001600081548092919061164c906123c1565b919050555060018361165e9190612851565b6000858154811061167257611671612363565b5b906000526020600020906009020160080160003373ffffffffffffffffffffffffffffffffffffffff1673ffffffffffffffffffffffffffffffffffffffff168152602001908152602001600020819055507fd91ecafccf238642dccd41161308b3eebe62a12bc5819daf5164780c221ec95b8484336040516116f793929190612a07565b60405180910390a150505050565b60015481565b803373ffffffffffffffffffffffffffffffffffffffff166000828154811061173757611736612363565b5b906000526020600020906009020160050160029054906101000a900473ffffffffffffffffffffffffffffffffffffffff1673ffffffffffffffffffffffffffffffffffffffff16146117bf576040517f08c379a00000000000000000000000000000000000000000000000000000000081526004016117b6906124b5565b60405180910390fd5b600081815481106117d3576117d2612363565b5b906000526020600020906009020160050160019054906101000a900460ff1615611832576040517f08c379a000000000000000000000000000000000000000000000000000000000815260040161182990612521565b60405180910390fd5b6000828154811061184657611845612363565b5b906000526020600020906009020160050160019054906101000a900460ff16156118a5576040517f08c379a000000000000000000000000000000000000000000000000000000000815260040161189c90612521565b60405180910390fd5b6001600083815481106118bb576118ba612363565b5b906000526020600020906009020160050160006101000a81548160ff0219169083151502179055505050565b6040518061014001604052806000815260200160608152602001606081526020016000815260200160008152602001600015158152602001600073ffffffffffffffffffffffffffffffffffffffff1681526020016060815260200160608152602001600081525090565b82805482825590600052602060002090810192821561199a579160200282015b82811115611999578251829081611989919061277f565b5091602001919060010190611972565b5b5090506119a791906119f8565b5090565b8280548282559060005260206000209081019282156119e7579160200282015b828111156119e65782518255916020019190600101906119cb565b5b5090506119f49190611a1c565b5090565b5b80821115611a185760008181611a0f9190611a39565b506001016119f9565b5090565b5b80821115611a35576000816000905550600101611a1d565b5090565b508054611a4590612438565b6000825580601f10611a575750611a76565b601f016020900490600052602060002090810190611a759190611a1c565b5b50565b6000819050919050565b611a8c81611a79565b82525050565b6000602082019050611aa76000830184611a83565b92915050565b600081519050919050565b600082825260208201905092915050565b6000819050602082019050919050565b611ae281611a79565b82525050565b600081519050919050565b600082825260208201905092915050565b60005b83811015611b22578082015181840152602081019050611b07565b60008484015250505050565b6000601f19601f8301169050919050565b6000611b4a82611ae8565b611b548185611af3565b9350611b64818560208601611b04565b611b6d81611b2e565b840191505092915050565b60008115159050919050565b611b8d81611b78565b82525050565b600073ffffffffffffffffffffffffffffffffffffffff82169050919050565b6000611bbe82611b93565b9050919050565b611bce81611bb3565b82525050565b600081519050919050565b600082825260208201905092915050565b6000819050602082019050919050565b6000611c0c8383611b3f565b905092915050565b6000602082019050919050565b6000611c2c82611bd4565b611c368185611bdf565b935083602082028501611c4885611bf0565b8060005b85811015611c845784840389528151611c658582611c00565b9450611c7083611c14565b925060208a01995050600181019050611c4c565b50829750879550505050505092915050565b600081519050919050565b600082825260208201905092915050565b6000819050602082019050919050565b6000611cce8383611ad9565b60208301905092915050565b6000602082019050919050565b6000611cf282611c96565b611cfc8185611ca1565b9350611d0783611cb2565b8060005b83811015611d38578151611d1f8882611cc2565b9750611d2a83611cda565b925050600181019050611d0b565b5085935050505092915050565b600061014083016000830151611d5e6000860182611ad9565b5060208301518482036020860152611d768282611b3f565b91505060408301518482036040860152611d908282611b3f565b9150506060830151611da56060860182611ad9565b506080830151611db86080860182611ad9565b5060a0830151611dcb60a0860182611b84565b5060c0830151611dde60c0860182611bc5565b5060e083015184820360e0860152611df68282611c21565b915050610100830151848203610100860152611e128282611ce7565b915050610120830151611e29610120860182611ad9565b508091505092915050565b6000611e408383611d45565b905092915050565b6000602082019050919050565b6000611e6082611aad565b611e6a8185611ab8565b935083602082028501611e7c85611ac9565b8060005b85811015611eb85784840389528151611e998582611e34565b9450611ea483611e48565b925060208a01995050600181019050611e80565b50829750879550505050505092915050565b60006020820190508181036000830152611ee48184611e55565b905092915050565b6000604051905090565b600080fd5b600080fd5b611f0981611a79565b8114611f1457600080fd5b50565b600081359050611f2681611f00565b92915050565b600060208284031215611f4257611f41611ef6565b5b6000611f5084828501611f17565b91505092915050565b600082825260208201905092915050565b6000611f7582611ae8565b611f7f8185611f59565b9350611f8f818560208601611b04565b611f9881611b2e565b840191505092915050565b611fac81611b78565b82525050565b611fbb81611bb3565b82525050565b600061010082019050611fd7600083018b611a83565b8181036020830152611fe9818a611f6a565b90508181036040830152611ffd8189611f6a565b905061200c6060830188611a83565b6120196080830187611a83565b61202660a0830186611fa3565b61203360c0830185611fa3565b61204060e0830184611fb2565b9998505050505050505050565b600080fd5b600080fd5b7f4e487b7100000000000000000000000000000000000000000000000000000000600052604160045260246000fd5b61208f82611b2e565b810181811067ffffffffffffffff821117156120ae576120ad612057565b5b80604052505050565b60006120c1611eec565b90506120cd8282612086565b919050565b600067ffffffffffffffff8211156120ed576120ec612057565b5b6120f682611b2e565b9050602081019050919050565b82818337600083830152505050565b6000612125612120846120d2565b6120b7565b90508281526020810184848401111561214157612140612052565b5b61214c848285612103565b509392505050565b600082601f8301126121695761216861204d565b5b8135612179848260208601612112565b91505092915050565b600067ffffffffffffffff82111561219d5761219c612057565b5b602082029050602081019050919050565b600080fd5b60006121c66121c184612182565b6120b7565b905080838252602082019050602084028301858111156121e9576121e86121ae565b5b835b8181101561223057803567ffffffffffffffff81111561220e5761220d61204d565b5b80860161221b8982612154565b855260208501945050506020810190506121eb565b5050509392505050565b600082601f83011261224f5761224e61204d565b5b813561225f8482602086016121b3565b91505092915050565b6000806000806080858703121561228257612281611ef6565b5b600085013567ffffffffffffffff8111156122a05761229f611efb565b5b6122ac87828801612154565b945050602085013567ffffffffffffffff8111156122cd576122cc611efb565b5b6122d987828801612154565b935050604085013567ffffffffffffffff8111156122fa576122f9611efb565b5b6123068782880161223a565b925050606061231787828801611f17565b91505092959194509250565b6000806040838503121561233a57612339611ef6565b5b600061234885828601611f17565b925050602061235985828601611f17565b9150509250929050565b7f4e487b7100000000000000000000000000000000000000000000000000000000600052603260045260246000fd5b7f4e487b7100000000000000000000000000000000000000000000000000000000600052601160045260246000fd5b60006123cc82611a79565b91507fffffffffffffffffffffffffffffffffffffffffffffffffffffffffffffffff82036123fe576123fd612392565b5b600182019050919050565b7f4e487b7100000000000000000000000000000000000000000000000000000000600052602260045260246000fd5b6000600282049050600182168061245057607f821691505b60208210810361246357612462612409565b5b50919050565b7f4e6f7420746865206f776e6572206f66207468697320706f6c6c2e0000000000600082015250565b600061249f601b83611f59565b91506124aa82612469565b602082019050919050565b600060208201905081810360008301526124ce81612492565b9050919050565b7f506f6c6c2069732064656c657465642e00000000000000000000000000000000600082015250565b600061250b601083611f59565b9150612516826124d5565b602082019050919050565b6000602082019050818103600083015261253a816124fe565b9050919050565b7f506f6c6c206d7573742068617665206174206c656173742074776f206f70746960008201527f6f6e732e00000000000000000000000000000000000000000000000000000000602082015250565b600061259d602483611f59565b91506125a882612541565b604082019050919050565b600060208201905081810360008301526125cc81612590565b9050919050565b60008190508160005260206000209050919050565b60006020601f8301049050919050565b600082821b905092915050565b6000600883026126357fffffffffffffffffffffffffffffffffffffffffffffffffffffffffffffffff826125f8565b61263f86836125f8565b95508019841693508086168417925050509392505050565b6000819050919050565b600061267c61267761267284611a79565b612657565b611a79565b9050919050565b6000819050919050565b61269683612661565b6126aa6126a282612683565b848454612605565b825550505050565b600090565b6126bf6126b2565b6126ca81848461268d565b505050565b5b818110156126ee576126e36000826126b7565b6001810190506126d0565b5050565b601f82111561273357612704816125d3565b61270d846125e8565b8101602085101561271c578190505b612730612728856125e8565b8301826126cf565b50505b505050565b600082821c905092915050565b600061275660001984600802612738565b1980831691505092915050565b600061276f8383612745565b9150826002028217905092915050565b61278882611ae8565b67ffffffffffffffff8111156127a1576127a0612057565b5b6127ab8254612438565b6127b68282856126f2565b600060209050601f8311600181146127e957600084156127d7578287015190505b6127e18582612763565b865550612849565b601f1984166127f7866125d3565b60005b8281101561281f578489015182556001820191506020850194506020810190506127fa565b8683101561283c5784890151612838601f891682612745565b8355505b6001600288020188555050505b505050505050565b600061285c82611a79565b915061286783611a79565b925082820190508082111561287f5761287e612392565b5b92915050565b600060608201905061289a6000830186611a83565b81810360208301526128ac8185611f6a565b90506128bb6040830184611fb2565b949350505050565b7f506f6c6c20697320636c6f7365642e0000000000000000000000000000000000600082015250565b60006128f9600f83611f59565b9150612904826128c3565b602082019050919050565b60006020820190508181036000830152612928816128ec565b9050919050565b7f596f75206861766520616c726561647920766f7465642e000000000000000000600082015250565b6000612965601783611f59565b91506129708261292f565b602082019050919050565b6000602082019050818103600083015261299481612958565b9050919050565b7f496e76616c6964206f7074696f6e20696e6465782e0000000000000000000000600082015250565b60006129d1601583611f59565b91506129dc8261299b565b602082019050919050565b60006020820190508181036000830152612a00816129c4565b9050919050565b6000606082019050612a1c6000830186611a83565b612a296020830185611a83565b612a366040830184611fb2565b94935050505056fea2646970667358221220d348445f667037a529b03d1b070f559c65e6849d4e74585472b27d2d3417ab2764736f6c63430008100033",
  "immutableReferences": {},
  "source": "// SPDX-License-Identifier: MIT\npragma solidity ^0.8.0;\n\ncontract PollingPlatform {\n    struct Poll {\n        uint256 id;\n        string question;\n        string description;\n        uint256 createdAt;\n        uint256 closeAt;\n        bool isOpen;\n        bool isDeleted;\n        address owner;\n        string[] options;\n        uint256[] votes;\n        mapping(address => uint256) userVotes;\n    }\n\n    struct PollInfo {\n        uint256 id;\n        string question;\n        string description;\n        uint256 createdAt;\n        uint256 closeAt;\n        bool isOpen;\n        address owner;\n        string[] options;\n        uint256[] votes;\n        uint256 userVote;\n    }\n\n    Poll[] public polls;\n    uint256 public pollCounter = 0;\n\n    event PollCreated(uint256 pollId, string question, address creator);\n    event PollDeleted(uint256 pollId);\n    event Voted(uint256 pollId, uint256 optionIndex, address voter);\n\n    modifier onlyOwner(uint256 _pollId) {\n        require(\n            polls[_pollId].owner == msg.sender,\n            \"Not the owner of this poll.\"\n        );\n        require(!polls[_pollId].isDeleted, \"Poll is deleted.\");\n        _;\n    }\n\n    modifier pollIsOpen(uint256 _pollId) {\n        require(polls[_pollId].isOpen, \"Poll is closed.\");\n        require(!polls[_pollId].isDeleted, \"Poll is deleted.\");\n        _;\n    }\n\n    modifier canVote(uint256 _pollId) {\n        require(polls[_pollId].isOpen, \"Poll is closed.\");\n        require(!polls[_pollId].isDeleted, \"Poll is deleted.\");\n        require(\n            polls[_pollId].userVotes[msg.sender] == 0,\n            \"You have already voted.\"\n        );\n        _;\n    }\n\n    function createPoll(\n        string memory _question,\n        string memory _description,\n        string[] memory _options,\n        uint256 _duration\n    ) public {\n        require(_options.length > 1, \"Poll must have at least two options.\");\n\n        Poll storage newPoll = polls.push();\n        newPoll.id = pollCounter;\n        newPoll.question = _question;\n        newPoll.description = _description;\n        newPoll.createdAt = block.timestamp;\n        newPoll.closeAt = block.timestamp + _duration;\n        newPoll.isOpen = true;\n        newPoll.isDeleted = false;\n        newPoll.owner = msg.sender;\n        newPoll.options = _options;\n        newPoll.votes = new uint256[](_options.length);\n        newPoll.userVotes[msg.sender] = 0;\n\n        emit PollCreated(pollCounter, _question, msg.sender);\n        pollCounter++;\n    }\n\n    function vote(\n        uint256 _pollId,\n        uint256 _optionIndex\n    ) public pollIsOpen(_pollId) canVote(_pollId) {\n        require(\n            _optionIndex < polls[_pollId].options.length,\n            \"Invalid option index.\"\n        );\n\n        polls[_pollId].votes[_optionIndex]++;\n        polls[_pollId].userVotes[msg.sender] = _optionIndex + 1;\n        emit Voted(_pollId, _optionIndex, msg.sender);\n    }\n\n    function getPolls() public view returns (PollInfo[] memory) {\n        uint256 activePollsCount = 0;\n\n        for (uint256 i = 0; i < pollCounter; i++) {\n            if (!polls[i].isDeleted) {\n                activePollsCount++;\n            }\n        }\n\n        PollInfo[] memory pollInfos = new PollInfo[](activePollsCount);\n        uint256 index = 0;\n\n        for (uint256 i = 0; i < pollCounter; i++) {\n            Poll storage currentPoll = polls[i];\n\n            if (!currentPoll.isDeleted) {\n                uint256 userVote = currentPoll.userVotes[msg.sender];\n\n                pollInfos[index] = PollInfo({\n                    id: currentPoll.id,\n                    question: currentPoll.question,\n                    description: currentPoll.description,\n                    createdAt: currentPoll.createdAt,\n                    closeAt: currentPoll.closeAt,\n                    isOpen: currentPoll.isOpen,\n                    owner: currentPoll.owner,\n                    options: currentPoll.options,\n                    votes: currentPoll.votes,\n                    userVote: userVote\n                });\n\n                index++;\n            }\n        }\n\n        return pollInfos;\n    }\n\n    function getUserPolls() public view returns (PollInfo[] memory) {\n        uint256 userPollCounter = 0;\n\n        for (uint256 i = 0; i < pollCounter; i++) {\n            if (polls[i].owner == msg.sender && !polls[i].isDeleted) {\n                userPollCounter++;\n            }\n        }\n\n        PollInfo[] memory userPolls = new PollInfo[](userPollCounter);\n        uint256 index = 0;\n\n        for (uint256 i = 0; i < pollCounter; i++) {\n            Poll storage currentPoll = polls[i];\n\n            if (currentPoll.owner == msg.sender && !currentPoll.isDeleted) {\n                uint256 userVote = currentPoll.userVotes[msg.sender];\n\n                userPolls[index] = PollInfo({\n                    id: currentPoll.id,\n                    question: currentPoll.question,\n                    description: currentPoll.description,\n                    createdAt: currentPoll.createdAt,\n                    closeAt: currentPoll.closeAt,\n                    isOpen: currentPoll.isOpen,\n                    owner: currentPoll.owner,\n                    options: currentPoll.options,\n                    votes: currentPoll.votes,\n                    userVote: userVote\n                });\n\n                index++;\n            }\n        }\n\n        return userPolls;\n    }\n\n    function deletePoll(uint256 _pollId) public onlyOwner(_pollId) {\n        polls[_pollId].isDeleted = true;\n        emit PollDeleted(_pollId);\n    }\n\n    function closePoll(uint256 _pollId) public onlyOwner(_pollId) {\n        require(!polls[_pollId].isDeleted, \"Poll is deleted.\");\n        polls[_pollId].isOpen = false;\n    }\n\n    function openPoll(uint256 _pollId) public onlyOwner(_pollId) {\n        require(!polls[_pollId].isDeleted, \"Poll is deleted.\");\n        polls[_pollId].isOpen = true;\n    }\n\n    function getPollCount() public view returns (uint256) {\n        return pollCounter;\n    }\n}\n",
  "sourcePath": "E:\\Study\\CS Sem7\\BC\\project\\blockpoll\\poll\\contracts\\PollingPlatform.sol",
  "compiler": {
    "name": "solc",
    "version": "0.8.16+commit.07a7930e.Emscripten.clang"
  },
  "schemaVersion": "3.4.16",
  "updatedAt": "2024-10-24T04:05:29.092Z",
  "networkType": "ethereum",
  "devdoc": {
    "kind": "dev",
    "methods": {},
    "version": 1
  },
  "userdoc": {
    "kind": "user",
    "methods": {},
    "version": 1
  }
}